:100B280057656C636F6D6520746F207573696E67A8
:100B3800205265616C2D54696D6520656E7620695B
:100B48006E666F206D6F6E69746F7220210A0A00DD
:100B58004E6F20666972652C004765746669726518
:100B68002C00205968756D616E00204E68756D61A6
:080B78006E00256600543D00EB
:100C4700E4F54075410C754222F543F544F545F549
:0E0C570046F547F548F549E5414542F54A2284
:1009F900120C25120D44120CF6E4F522F5237FC8DA
:100A0900120D290523E52370020522C39464E5220A
:100A19006480948040E87BFF7A0B7928120BDC1202
:100A29000C47D290D29130900BE4F5457BFF7A0BBD
:100A39007958800A7545017BFF7A0B7961E4FDFFDE
:100A4900120C0130910C7546017BFF7A0B796AE42F
:100A59008009E4F5467BFF7A0B7972FD7F08120C59
:100A690001120B808E4F8F50E54FF547855048FC9A
:100A7900AD50E41201318F4E8E4D8D4C8C4BE4FB01
:100A8900FA7980783D1200268F4E8E4D8D4C8C4B15
:100A99007527FF75280B75297A8F2D8E2C8D2B8C38
:100AA9002A7B007A0079511205E67BFF7A0B797D62
:100AB9007D01E4FF120C017B007A0079517D017FF1
:100AC90002120C01E540454145424543454445452F
:100AD9004546454745484549F54AE4F522F5237415
:100AE900402523F8E6FF120D4E0523E52370020584
:100AF90022C3940BE5226480948040E3E4F522F557
:100B0900237FC8120D290523E52370020522C3940A
:0F0B1900C8E5226480948040E8120D44020A2F40
:030D5600DFFE229B
:070C82007F38120CD07F0542
:100C8900AE07AF061EEF600C7FF5120D567FF51209
:050C99000D5680EE2263
:100D09007580FFC2A4D2A5C2A600D2A6E58033226F
:100CD000AD077F05120C89C2A4C2A5D2A68D8000E3
:030CE000C2A62287
:100CE300AD077F05120C89D2A4C2A5D2A68D8000C0
:030CF300C2A62274
:0A0D44007F01120CD07F05020C891C
:100C0100AE07ED7005EE24808003EE24C0FF120CC8
:100C1100D01204EEFF600C120CE3740129F9E43ADE
:040C2100FA80EE2245
:100CB800AE07AC03ED7005EE24808003EE24C0FF80
:080CC800120CD0AF04020CE392
:100C2500120C82120C82120C827F38120CD07F08B3
:100C3500120CD07F01120CD07F06120C847F0C029F
:020C45000CD0D1
:03002300020D19B2
:100D1900309805C298859908309904C299C2093258
:100CF600759850758920758BFD758DFDD28ED2AC99
:030D0600D2AF2247
:080D4E002009FDD2098F992252
:100BDC008B248A258926AB24AA25A9261204EE602B
:100BEC00130526E5267002052514F91204EEFF12F2
:050BFC000D4E80E22215
:0100220022BB
:0E0D2900AD071FED60087E051EEE60F480FA37
:010D37002299
:10000300D292120022C2927F23120D29D2927F0232
:0E001300120D29A29292007F02120D29A20066
:0100210022BC
:020C9E00AB07A2
:100CA000E4FAC292EB1392927F03120D29D292EBD7
:070CB000C313FB0ABA08EBB5
:010CB700221A
:100C6500E4FCFBC292ECC313FCD292309203430422
:0C0C7500807F04120D290BBB08E9AF04BE
:010C81002250
:100B8000E4FAFFFDFC1200037FCC120C9E7F44129E
:100B90000C9E7FC8120D291200037FCC120C9E7F81
:100BA000BE120C9E120C65AA07120C65AD07EDFC77
:040BB000EAAE04FFA6
:010BB400221E
:10002600EC4D6011E8497017ED33EC3304600DE4D4
:10003600FCFFFEFD22E933E8330470F802019F124B
:10004600016A58046009E4CC24815006285009024C
:1000560001A92840030201A6C0E0EB4A7044B9801A
:1000660006D0E0FB020195EF4E701CBD8008EBFF49
:10007600EAFEE9FD80EBE98DF0A4FEE5F002010F52
:10008600E9CDF9EAFEEBFFEF89F0A4FCE5F0CE89B5
:10009600F0A42EFFE435F0CD89F0A42DFEE435F072
:1000A6008067EF4E7005BD80D780C3EF8BF0A4ACA0
:1000B600F0EE8BF0A42CFCE435F0F8EF8AF0A42CDB
:1000C600E5F038FCE433CB8DF0A42CFCE5F03BF8EE
:1000D600EE8AF0A42CFCE5F038F8E433CF89F0A4DE
:1000E6002CFCE5F038CF3400CE89F0A42FFFE5F0E4
:1000F6003EFEE433C98DF0A42EFEE5F039CD8AF03C
:10010600A42FFFE5F03EFEE43DFD33D0E0FB5007B3
:100116000BBB000F0201A9EC2CFCEF33FFEE33FE04
:06012600ED33FD02018132
:10012C0075F020800E75F010800575F0087D007E4E
:10013C00007F003392D530D503120546EC334010C6
:10014C00EF33FFEE33FEED33FDEC33FCD5F0ED2257
:0E015C00E5F0247EA2D513CC92E7CDCEFF2293
:10058A00E53B2427F8E6053B227824300702782742
:10059A00E475F0011205540204EE2000EB7F2ED21E
:1005AA00008018EF540F2490D43440D4FF30040B49
:1005BA00EF24BFB41A0050032461FFE53C60021522
:1005CA003C053FE53F7002053E30070D7824E4758F
:1005DA00F001120554EF020534020BB57403D20779
:1005EA008003E4C207F53B8B248A258926E4F53C7F
:1005FA00F53EF53FE53C60077F201205C580F5759D
:10060A003DFFC201C200C202C203C205C206C2083D
:10061A00120593FF700D3007057F001205D6AF3F14
:10062A00AE3E22B4255FC2D5C204120593FF24D080
:10063A00B40A00501A75F00A783C30D50508B6FF9E
:10064A000106C6A426F620D5047002D20380D92456
:10065A00CFB41A00EF5004C2E5D2040208C3D20193
:10066A0080C6D20080C0D20280BCD2D580BAD20560
:10067A0080B47F201205C52002077401B53C0040F2
:10068A00F112058AFF1205C50205FED208D20680BC
:10069A009512058AFB12058AFA12058AF94A4B70E5
:1006AA000679BA7A097BFF20022EE53C602A7E0091
:1006BA008E8275830012050760060EEE653D70F0A6
:1006CA00C2D5EBC0E0EAC0E0E9C0E0EE120923D0EF
:1006DA00E0F9D0E0FAD0E0FB1204EEFF60AAEBC02A
:1006EA00E0EAC0E0E9C0E01205C5D0E02401F9D093
:1006FA00E03400FAD0E0FBE53D0460DCD53DD9806A
:10070A0087D20280A212090660F7E53D7001041241
:10071A0001B4A93D600DE53D600914F53D1209AD2E
:10072A00EF60F3EA30E702F404C3995077EAF4255C
:10073A003D0430E701E404F53D800D12090660C16D
:10074A00EA053D253D1201B4EA783AF630E701E4BC
:10075A00253D04D53D0420050114120923E4C0E017
:10076A001209AD783AE6601320E70714F61205ADD0
:10077A00802204F6D0E014C0E07F001205ADE53D0A
:10078A0060071205A4153D800B3005031205A4D09D
:10079A00E00205FED0E00480C512090660A0E53D2E
:1007AA00041201B4783AEAF6E53D20050260010434
:0507BA002404120923D4
:1007BF0074FF04C0E01209AD1205ADE53D2005023E
:1007CF0060031205A4D0E0B53DE87F451205B77868
:1007DF003AE67F2B30E7047F2DF404C0E01205C505
:1007EF00D0E075F00A84C0F01205AED0E01205AE6D
:1007FF000205FE791080027908C206C2088008D26D
:10080F00D5790A8004790AC2D5E53D047002F53D19
:10081F00E4FAFDFEFF12058AFC7B08200113120586
:10082F008AFD7B1030000A12058AFE12058AFF7BB3
:10083F0020EC3382D592D55013C3E43000069FFFCE
:10084F00E49EFEE42001039DFDE49CFCE4CBF8C292
:10085F0001EC700CCFCECDCCE824F8F870F38017F4
:10086F00C3EF33FFEE33FEED33FDEC33FCEB33FB25
:10087F00994002FB0FD8E9EB300105F8D0E0C448EE
:10088F00B201C0E00AEC4D4E4F78207B0070C2EAF7
:10089F00B53D0040BCC0E0120925D0F0D0E02001EA
:1008AF0004C4C0E0C4B201C0F01205AED0F0D5F060
:1008BF00EB0205FE120564069B53080258066C4CAA
:1008CF0006684208064F080E44080E490681430881
:1008DF00145507454607A345070F4709DA50067019
:1008EF002D06742E06972B06782306952009C32A0A
:1008FF000630480000068FE53DB4FF03753D061234
:10090F00058AFC12058AFD12058AFE12058AFF78F8
:10091F00330201E3790AA2D5200314300509B91077
:10092F00020404B9080104A2D520060250010420D4
:10093F0002689202B53C005034C0E07F20300319AA
:10094F007F30A20272067205500F12097CC202C2DA
:10095F0006C205C2087F30800F300503E9C0E012E0
:10096F0005C5300503D0E0F9D0E0B53CCC30051714
:10097F007F30B9100C1205C57F583004077F78807F
:10098F0003B908031205C53002057F2D0205C57F87
:10099F00202008F87F2B2006F322920280CF7F00C1
:1009AF00B4070050052433F8E6FF22286E756C6CEF
:1009BF002900D20112058A3001F8C201783C30D5E6
:1009CF000108F60206302D5043495812058A2403B8
:1009DF00B405004001E49009D5931205B6743A129C
:0A09EF0005B6D203753C04020802AD
:10016A00E9D2E7C933E833F892D5EDD2E7CD33ECDB
:07017A0033FC5002B2D52254
:10018100EC30E7100FBF000C0EBE00080DBD0004DF
:100191000BEB6014A2D5EB13FCED92E7FD2274FF8B
:1001A100FCFDFEFF22E480F8A2D574FF13FC7D80E4
:0301B100E480EFF8
:1001B400F920E72824F950037907E4F42402FB1812
:1001C400DBFDE624FB5014E9600DE4F618E604F6C2
:0F01D400B40A08E4F6D9F57401F60A22C2D5225E
:1001E300ED33EC3392D5FA602AB4FF33EDC2E77BEB
:1001F300FF60067A027908E4227A02791120D50495
:100203007A02790C224E614E002B494E46002D494D
:100213004E4600E47A08F608DAFC7B00740722E80D
:10022300C0E0ECC0E0EDC0E0EEC0E0EFC0E0EA7596
:10023300F010A4CAABF075F04DA42BFBE435F0FC31
:10024300EA2410FAEB34C5FBEC34D9FCEDC2E7FF2A
:1002530075F056A4F42411C5F0F434C58FF0A42A24
:10026300E5F03BE43CF620E7141204AED0E0FFD007
:10027300E0FED0E0FDD0E0FC1203E18014F40412B0
:1002830004AED0E0FFD0E0FED0E0FDD0E0FC1200F1
:1002930026D0E0F8E6FAEDD2E7CD33EC332482FB47
:1002A300E4C3CF33CFCE33CECD33CD33DBF37B07B4
:1002B30075F00A846004F6081B0AE5F0F6088FF06F
:1002C300740AA4FFACF08EF0740AA42CFEACF050B8
:1002D300010C8DF0740AA42CFDE435F0F608DBDE86
:0302E3007407227B
:1002E60002019FE86480F8E933E83360110460F0A6
:1002F600ED33EC337009E8FCE9FDEAFEEBFF22047E
:1003060060DED3EB9FEA9EE99DE8C2E78CF0C2F778
:1003160095F0400CE8CCF8E9CDF9EACEFAEBCFFB44
:1003260012016A85D0F05804700320D5B3E8047032
:10033600075002B2D50201A992D5EC0460F7E4CCCD
:10034600C0E0C398F8603B94186008400DD0E0FB0D
:10035600020181E4FBFAC9FC8028E830E406E4C91E
:10036600FBE4CAFCE830E305E4C9CACBFCE8540761
:100376006010F8C3E913F9EA13FAEB13FBEC13FC6C
:10038600D8F130F52FC3E49CFCEF9BFFEE9AFEED0F
:1003960099FDD0E0FBEF4E4D4C701222DB030201BB
:1003A600A6EC2CFCEF33FFEE33FEED33FDED30E72C
:1003B600EB020181EF2BFFEE3AFEED39FDD0E0FBBB
:1003C60050130BBB00030201A9ED13FDEE13FEEF64
:0803D60013FFEC13FC0201818E
:1003DE000201A9EC5D046005E85904700302019F57
:1003EE0012016A580460F6EC4860F2EC7004FDFEEF
:1003FE00FF22C860DB2481C85009C39860025006F2
:10040E000201A69850CAF582E9294B4A7005AB82C3
:10041E0002019575F0007C1A7880C3EF9BEE9AED81
:10042E0099400DC3EF9BFFEE9AFEED99FDE842F069
:10043E00DC23ACF0D0E0FFD0E0FED0E0FDAB8220BC
:10044E00E7101BEB60BAEC2CFCEF33FFEE33FEED46
:10045E0033FD020181E803F830E705C0F075F000C6
:10046E00EF2FFFEE33FEED33FD40B830E7C280AA2A
:10047E003F8000004120000042C80000447A000086
:10048E00461C400047C35000497424004B18968008
:10049E004CBEBC205A0E1BCA6753C21C749DC5AEFF
:1004AE00FB60065407601C23231204DCEB543860F7
:1004BE00091204C81204D7120026ECF8EDF9EEFA70
:1004CE00EFCB22EB1204D780F1543803241C900496
:1004DE007EFE93FC0EEE93FD0EEE930ECE93FF2258
:03000000020D38B6
:0C0D3800787FE4F6D8FD75815A0209F9B5
:1004EE00BB010689828A83E0225002E722BBFE020C
:0904FE00E32289828A83E493223F
:10050700BB010CE58229F582E5833AF583E02250A9
:1005170006E92582F8E622BBFE06E92582F8E222F3
:0D052700E58229F582E5833AF583E493220D
:10053400BB010689828A83F0225002F722BBFE01A6
:02054400F322A0
:0E054600C3E49FFFE49EFEE49DFDE49CFC22C6
:10055400FAE6FB0808E6F925F0F618E6CA3AF622A8
:10056400D083D082F8E4937012740193700DA3A326
:1005740093F8740193F5828883E47374029368603A
:06058400EFA3A3A380DF3A
:100BB500EFB40A07740D120BC0740A309811A89986
:100BC500B8130CC2983098FDA899C298B811F630A0
:070BD50099FDC299F5992278
:00000001FF
